:1000000003C100000C94FD0B0C94D20B0C94A70BB5
:100010000C947C0B0C94510B0C94260B0C94FB0A47
:100020000C94D00A22C1000020C100001EC10000B3
:100030001CC100001AC1000018C1000016C1000058
:1000400014C100000C94E20D10C100000EC10000AC
:100050000CC100000AC1000008C100000C94860A0F
:1000600004C100000C94500A0C94270AFEC0000042
:10007000FCC00000FAC00000F8C00000F6C000009C
:100080000C94B00DF2C00000F0C00000EEC0000003
:10009000ECC00000EAC00000E8C000000C94280C8E
:1000A000E4C00000E2C000000C947E0DDEC0000041
:1000B000DCC00000DAC00000D8C000000C944C0D79
:1000C000D4C00000D2C00000D0C00000CEC00000EC
:1000D000CCC00000CAC00000C8C00000C6C00000FC
:1000E000C4C0000000002100240027002A002D00C9
:1000F0003000330001010000040107010A01000083
:100100002200250028002B002E00310034000201BF
:100110000000050108010B0100002000230026005B
:1001200029002C002F00320000010000030106010D
:10013000090105050505070508080808020202026D
:100140000A0A080804040404010101010101010173
:100150000303030303030303040707070C0C0C0C3E
:100160000C0C0C0C02020202060606060606060627
:100170000B0B0B0B0B0B0B0B0102102020080810B4
:100180002040102040800201020108040201010207
:1001900004081020408080402010080402018004E0
:1001A000020180402010080402010804020101023B
:1001B0000408102040800102040810204080000044
:1001C0000A0B02090C0D0E080703040100000000D1
:1001D000000000000000000000000000000000001F
:1001E00000000000000000000000121110000000DC
:1001F00000000000000000000000000000000000FF
:1002000000000000140E421311241FBECFEFD1E2F4
:10021000DEBFCDBF00E00CBF13E0A0E0B2E0E4E43D
:10022000FDE200E00BBF02C007900D92A834B107B9
:10023000D9F725E0A8E4B3E001C01D92A430B207CD
:10024000E1F711E0C3E0D1E000E006C02197010929
:10025000802FFE010E946F14C230D10780E0080792
:10026000A9F70E94B80E0C949116CACEE3E4F4E00C
:10027000A089B18982E08C93A485B5851C92A6855E
:10028000B78580E18C93108EA489B58986E08C9324
:10029000A289B3898C9180618C93A289B3898C9156
:1002A00088608C93A289B3898C9180688C93028832
:1002B000F389E02D80818F7D8083089508950895CE
:1002C0000895AF92BF92CF92DF92EF92FF920F9379
:1002D0001F93CF93DF936C017B018B01040F151FDC
:1002E000EB015E01AE18BF08C017D10759F0699144
:1002F000D601ED91FC910190F081E02DC601199598
:10030000892B79F7C501DF91CF911F910F91FF9054
:10031000EF90DF90CF90BF90AF900895FC01538D88
:10032000448D252F30E0842F90E0821B930B5417CF
:1003300010F0CF96089501970895FC01918D828D5C
:10034000981761F0A28DAE0FBF2FB11D5D968C91F5
:10035000928D9F5F9F73928F90E008958FEF9FEF34
:100360000895FC01918D828D981731F0828DE80FF0
:10037000F11D858D90E008958FEF9FEF08952FB7C1
:10038000F89480913F0490914004A0914104B09171
:1003900042042FBF80934B0490934C04A0934D04D0
:1003A000B0934E0483E494E0DCDF97FF26C02FB7C0
:1003B000F89480913F0490914004A0914104B09141
:1003C00042042FBF40914B0450914C0460914D0466
:1003D00070914E04841B950BA60BB70B40914704FC
:1003E000509148046091490470914A04841795071C
:1003F000A607B707B8F28FEF9FEF0895CF92DF926D
:10040000EF92FF92CF93BBDFFC0197FD4BC08D3283
:10041000910521F0C0970A9708F03EC0C12CD12C5D
:100420007601C0E0E130F105D1F0ED32F105C1F126
:10043000CF01C0970A9798F4AAE0B0E0A70196010F
:100440000E941A146F01FF0FEE08FF08C60ED71E98
:10045000E81EF91E80E3C81AD108E108F10883E418
:1004600094E06BDF8CDFFC01C0970A97D8F2E13093
:10047000F105C1F2CC2341F0F094E094D094C09403
:10048000C11CD11CE11CF11CC701B601CF91FF902A
:10049000EF90DF90CF90089583E494E04EDFB3CFE8
:1004A000C1E0DDCFC12CD12C7601EECFFC01918DC6
:1004B000228D892F90E0805C9F4F821B91098F7362
:1004C0009927089583E494E0F1DF21E0892B09F472
:1004D00020E0822F0895FC01A48DA80FB92FB11D33
:1004E000A35ABF4F2C91848D90E001968F7399276A
:1004F000848FA689B7892C93A089B1898C91837048
:1005000080648C93938D848D981306C00288F38940
:10051000E02D80818F7D80830895EF92FF920F936D
:100520001F93CF93DF93EC0181E0888F9B8D8C8D9F
:1005300098131AC0E889F989808185FF15C09FB793
:10054000F894EE89FF896083E889F9898081837056
:10055000806480839FBF81E090E0DF91CF911F9105
:100560000F91FF90EF900895F62E0B8D10E00F5F26
:100570001F4F0F731127E02E8C8D8E110BC00FB6FD
:1005800007FCFACFE889F989808185FFF5CFCE0194
:10059000A2DFF2CFEB8DEC0FFD2FF11DE35AFF4FE1
:1005A000F0829FB7F8940B8FEA89FB898081806283
:1005B000D0CFCF93DF93EC01888D8823B1F0AA8947
:1005C000BB89E889F9898C9185FD03C0808186FD0E
:1005D0000CC00FB607FCF7CF8C9185FFF2CF80815E
:1005E00085FFEDCFCE0177DFEACFDF91CF91089580
:1005F00080E090E0892B21F065DF81110E940000EE
:1006000080E090E0892B49F080E090E0892B29F090
:100610000E94000081110E94000080E090E0892B80
:1006200049F080E090E0892B29F00E9400008111C0
:100630000E94000080E090E0892B49F080E090E08B
:10064000892B29F00E94000081110C94000008956C
:100650008150823108F05AC0E82FF0E08827EC5C26
:10066000FC4F8F4F0C946F145403580346034C03F4
:10067000500386035B03610365036B036F0373031E
:1006800079037D038603810387038B0380918000B8
:100690008F77809380000895809180008F7DF9CFBF
:1006A00080918000877FF5CF84B58F7784BD0895D2
:1006B00084B58F7DFBCF8091B0008F778093B000A1
:1006C00008958091B0008F7DF9CF809190008F7751
:1006D000809390000895809190008F7DF9CF809154
:1006E0009000877FF5CF8091A0008F778093A00046
:1006F00008958091A0008F7DF9CF8091A000877F21
:10070000F5CF809120018F7780932001089580910B
:1007100020018F7DF9CF80912001877FF5CFCF9386
:10072000DF93282F30E0F901E254FE4F8491F90164
:10073000E858FE4FD491F901EE5CFE4FC491CC23F2
:1007400099F0811185DFEC2FF0E0EE0FFF1FE85EDE
:10075000FE4FA591B491EC91ED2381E090E009F476
:1007600080E0DF91CF91089580E090E0FACF1F9371
:10077000CF93DF93282F30E0F901E254FE4F8491AC
:10078000F901E858FE4FD491F901EE5CFE4FC49197
:10079000CC23A1F0162F81115BDFEC2FF0E0EE0FE0
:1007A000FF1FE250FF4FA591B4918FB7F894EC91E1
:1007B000111108C0D095DE23DC938FBFDF91CF915C
:1007C0001F910895DE2BF8CFCF93DF9390E0FC01CB
:1007D000E858FE4F24918E5C9E4FFC018491882343
:1007E000D1F090E0880F991FFC01EC51FF4FA591CB
:1007F000B491FC01E250FF4FC591D491623071F485
:100800009FB7F8943C91822F809583238C93E88145
:100810002E2B28839FBFDF91CF9108958FB7F89437
:10082000EC912E2B2C938FBFF6CF3FB7F89480918D
:100830000A0490910B04A0910C04B0910D0426B50C
:10084000A89B05C02F3F19F00196A11DB11D3FBF08
:10085000BA2FA92F982F8827BC01CD01620F711DD7
:10086000811D911D42E0660F771F881F991F4A95D1
:10087000D1F708958F929F92AF92BF92CF92DF925D
:10088000EF92FF924B015C01D0DF6B017C01CDDF69
:100890006C197D098E099F09683E73408105910599
:1008A000B0F321E0821A9108A108B10888EEC80EC1
:1008B00083E0D81EE11CF11C81149104A104B10451
:1008C00031F7FF90EF90DF90CF90BF90AF909F9067
:1008D0008F900895089585ED8093BC008091BC00B1
:1008E00084FDFCCF1092140408952091A003260FDC
:1008F0003327331F21323105ECF420911404FC011D
:1009000090E080E0243069F082E00895A091A00397
:100910002191AC0140585C4FA40FB52FB11D2C9311
:100920000196861798F38091A003680F6093A00347
:1009300080E0089581E008950895E0911804809181
:100940001704E81730F4F0E0E05AFC4F808190E0A3
:1009500008958FEF9FEF08959091180480911704E8
:100960002FEF3FEF981748F4E92FF0E0E05AFC4FE3
:10097000208130E09F5F90931804C9010895809111
:10098000170490911804891B990B0895CF92DF9258
:10099000EF92FF920F931F93CF93DF937C01CB01D4
:1009A0008A012091E703222389F0EB016B01C40E39
:1009B000D51ECC15DD0561F06991D701ED91FC9153
:1009C0000190F081E02DC7011995F3CF642F8DDFE1
:1009D000C801DF91CF911F910F91FF90EF90DF90B1
:1009E000CF900895CF93DF931F92CDB7DEB7698381
:1009F0002091E7032223F9F020911504203258F0CA
:100A000021E030E0FC013383228390E080E00F900E
:100A1000DF91CF91089580911604E82FF0E0E8511E
:100A2000FC4F998190838F5F809316048093150407
:100A300081E090E0ECCF61E0CE01019656DFF8CF87
:100A4000CF93FC01C48121E02093E703C093080405
:100A500010921604109215048385682B80EE94E0A2
:100A6000C1DF90911504913208F03FC080911404C9
:100A70008111FCCF82E08093140481E08093130401
:100A80008FEF8093E6031092E5039093E403A8EEC2
:100A9000B3E0E4ECF3E080E098132FC01092C303BE
:100AA0008091C303CC0FC82BC093C3038091120461
:100AB000813039F5109212048091C3038093BB00FA
:100AC0008091BC0083FDF8CF85EC8093BC008091C1
:100AD00014048230E1F38091E6038F3F31F080917E
:100AE000E603803211F08091E60310921604109212
:100AF00015041092E703CF9108952D9121938F5FF4
:100B0000CBCF85EEE2CF90E080E008950F931F9366
:100B1000CF93DF938C01D0E0C0E061E08EE027DE70
:100B200068EC70E080E090E0A5DE60E08EE01FDE23
:100B300066E970E080E090E09DDE21960C171D07CD
:100B400061F7DF91CF911F910F910895613A9FE076
:100B5000790710F060EA7FE06732710510F467E210
:100B600070E09B0121503109823061F18330F1F155
:100B70008130A1F03093850020938400709387002A
:100B80006093860080916F00826080936F008AEA94
:100B9000809380008AE180938100089530939500CE
:100BA0002093940070939700609396008091710059
:100BB0008260809371008AEA809390008AE180933A
:100BC000910008953093A5002093A4007093A7008E
:100BD0006093A600809172008260809372008AEA1E
:100BE0008093A0008AE18093A100089530932501AD
:100BF0002093240170932701609326018091730054
:100C00008260809373008AEA809320018AE1809356
:100C10002101089520912F043091300428173907BD
:100C200009F43FC020915B03222349F021E0209387
:100C30005F0320915B032111FCCF10925F03609151
:100C40002704709128048617970759F168177907C8
:100C5000B8F4449821E030E03093200420931F043E
:100C60009093300480932F0420935B039C01261BF8
:100C7000370BB90180EA9FE00E945B1483E066CFE6
:100C8000449A2FEF3FEF3093200420931F0490935A
:100C9000300480932F0421E020935B03681B790BC1
:100CA000E9CF089520912D0430912E04281739079B
:100CB00009F43FC020915A03222349F021E02093F8
:100CC0005E0320915A032111FCCF10925E036091C4
:100CD0002504709126048617970759F1681779073C
:100CE000B8F4459821E030E030931E0420931D04B1
:100CF00090932E0480932D0420935A039C01261B6D
:100D0000370BB90180EA9FE00E945B1482E01ECF9E
:100D1000459A2FEF3FEF30931E0420931D049093CC
:100D20002E0480932D0421E020935A03681B790B35
:100D3000E9CF089520912B0430912C04281739070E
:100D400009F43FC020915903222349F021E0209368
:100D50005D03209159032111FCCF10925D03609136
:100D60002304709124048617970759F168177907AF
:100D7000B8F4469821E030E030931C0420931B0423
:100D800090932C0480932B04209359039C01261BE1
:100D9000370BB90180EA9FE00E945B1481E0D6CE58
:100DA000469A2FEF3FEF30931C0420931B0490933F
:100DB0002C0480932B0421E020935903681B790BAA
:100DC000E9CF08952091290430912A042817390782
:100DD00009F43FC020915803222349F021E02093D9
:100DE0005C03209158032111FCCF10925C036091A9
:100DF0002104709122048617970759F16817790723
:100E0000B8F4479821E030E030931A042093190495
:100E100090932A0480932904209358039C01261B55
:100E2000370BB90180EA9FE00E945B1480E08ECE10
:100E3000479A2FEF3FEF30931A04209319049093B1
:100E40002A048093290421E020935803681B790B1E
:100E5000E9CF089530E020E04BE95FE0FA013197F7
:100E6000F1F72F5F3F4F82179307C1F708950F9354
:100E70001F93CF938C01C62FE3DD6C2F6460C801F4
:100E8000DFDD6C2F6B7FC801DBDD83EC90E0019729
:100E9000F1F7CF911F910F9108950F931F93CF9367
:100EA000DF938C01D62FC42F607F642BE0DF80E1BD
:100EB000D89FB00111246C2BC801DF91CF911F91F5
:100EC0000F91D5CFCF93DF9300D000D01F921F9208
:100ED000CDB7DEB798E0EAE1F2E0DE0111960190CD
:100EE0000D929A95E1F79091FB04961708F46FEF35
:100EF000262F30E0220F331F41E050E04C0F5D1FE2
:100F0000240F351FF9016081680F606840E083EFAE
:100F100094E028960FB6F894DEBF0FBECDBFDF91E8
:100F2000CF91BBCF41E0B9DF81E090E0089540E090
:100F300061E083EF94E0B1DF8BE39FE10197F1F78C
:100F40000895FB0101900020E9F73197AF01461B9E
:100F5000570BDC01ED91FC910280F381E02D199497
:100F60008F929F92AF92BF920F931F93CF93DF9375
:100F7000CDB7DEB7A1970FB6F894DEBF0FBECDBFD9
:100F800019A2423008F44AE08E010F5D1F4F842EF3
:100F9000912CB12CA12CA50194010E942A14E62FBA
:100FA000B901CA01EA30FCF4E05DD801EE938D018D
:100FB000232B242B252B79F790E080E0109721F04C
:100FC000BD0183EF94E0BDDFA1960FB6F894DEBFBC
:100FD0000FBECDBFDF91CF911F910F91BF90AF900A
:100FE0009F908F900895E95CE0CFCF92DF92EF92CF
:100FF000FF926C01990FEE08FF08F7FE14C041E064
:101000006DE283EF94E049DF66277727CB016C1907
:101010007D098E099F094AE0A3DF0196FF90EF90BA
:10102000DF90CF9008954AE0C701B601FF90EF909E
:10103000DF90CF9095CF85CF60E08AE098DB61E0CC
:1010400084E095DB74DF60E080E03CDF6EE572E019
:1010500083EF94E0F0DF60E08DE034DF80913D04C9
:1010600090913E04C2DF61E080E02CDF65E672E033
:1010700083EF94E0E0CF2091F0043091F104232B32
:1010800039F421E0FC018081882361F020E00AC06E
:10109000BC018091EC049091ED040E94811621E046
:1010A000892BA1F7822F08950F931F93CF93DF937E
:1010B000EC0188819981009759F02A813B8126179C
:1010C000370730F081E0DF91CF911F910F910895A4
:1010D0008B016F5F7F4F0E949C15009759F0998399
:1010E00088831B830A832C813D81232B59F7FC01C4
:1010F0001082E8CF80E0E7CFEF92FF920F931F932B
:10110000CF93DF93EC017B01FB0101900020E9F715
:1011100031978F01061B170BB801C6DF2881398173
:10112000811113C02115310519F0C9010E94131551
:10113000198218821D821C821B821A82DF91CF9134
:101140001F910F91FF90EF9008951D830C83B701BD
:10115000C901DF91CF911F910F91FF90EF900C94F7
:101160008A160C94F0130C94E81390E080E0FBDFF7
:1011700090E090933E0480933D0461E08AE0F7DACA
:1011800060E084E0F4DAD3DE60E080E09BDE62E7DA
:1011900072E083EF94E04FDF60E08DE093DE8091BA
:1011A0003D0490913E0421DF61E080E08BDE6AE740
:1011B00072E083EF94E03FDF60E08EE3D8DA60E036
:1011C0008FE3D5DA60E080E4D2DA60E081E4CFCA70
:1011D000CF92DF92EF92FF920F931F93CF93DF9303
:1011E00083E09DDAEC0184E690E034DE789480912F
:1011F000FF048C171D0609F0A5C0B7DF21E234E01B
:10120000C5E3D4E0A8E4B3E040E553E090E080E03B
:10121000FA0111921192AF01FC01EE0FFF1FE75D81
:10122000FB4F11821082F901119211929F01699175
:1012300079916D937D9301968430910549F723EC64
:10124000C22ED12C2091500330915103809148033C
:10125000909149032817390714F1209152033091D6
:10126000530380914A0390914B0328173907BCF030
:10127000209154033091550380914C0390914D037C
:101280002817390764F02091560330915703809155
:101290004E0390914F03281739070CF039C098E49A
:1012A000E92E93E0F92E00E513E0D0E0C0E0F8016C
:1012B000819191918F01F701219131917F018217E5
:1012C00093070CF50196F801329791838083FE0114
:1012D000EB5CFB4F918380838091350490913604C1
:1012E00071DD809137049091380424DD80913904B8
:1012F00090913A04D7DC80913B0490913C048ADCC5
:10130000C6010197F1F72296C830D10581F69ACF30
:1013100061E08FE0D7DD68E872E083EF94E08BDE78
:101320006AE872E083E494E00CDE6EE872E083E445
:1013300094E0DF91CF911F910F91FF90EF90DF909C
:10134000CF90FFCD79DE8091350490913604909353
:101350005103809350038091370490913804909307
:101360005303809352038091390490913A049093EF
:1013700055038093540380913B0490913C049093D7
:1013800057038093560308E513E083ECE82EF12C15
:10139000809150039091510318161906ACF080917A
:1013A0005203909153031816190674F08091540358
:1013B00090915503181619063CF0809156039091B0
:1013C0005703181619063CF5C0E5D3E089919991A9
:1013D00018161906E4F4FE01329701979183808371
:1013E0008091500390915103EDDC809152039091D4
:1013F0005303A0DC809154039091550353DC8091FA
:1014000056039091570306DCC7010197F1F70C17BB
:101410001D07E1F6BDCF64EF71E080E090E02ADACD
:1014200061E08EE3A4D961E08FE3A1D961E080E4BB
:101430009ED961E081E49BD961E08FE043DD61E901
:1014400072E083EF94E0F7DD63E972E06BCF1F9207
:101450000F920FB60F9211240BB60F922F933F935A
:101460004F935F936F937F938F939F93AF93BF93AC
:10147000EF93FF9383E494E02ED8FF91EF91BF9117
:10148000AF919F918F917F916F915F914F913F911C
:101490002F910F900BBE0F900FBE0F901F901895BD
:1014A0001F920F920FB60F9211240BB60F922F932B
:1014B0008F939F93EF93FF93E0915304F091540423
:1014C0008081E0915904F0915A0482FD1DC0908101
:1014D00080915C048F5F8F7320915D04821741F0CF
:1014E000E0915C04F0E0ED5BFB4F958F80935C0432
:1014F000FF91EF919F918F912F910F900BBE0F90C5
:101500000FBE0F901F9018958081F2CF1F920F92FF
:101510000FB60F9211242F933F938F939F93AF9306
:10152000BF9380913F0490914004A0914104B091F9
:1015300042043091090423E0230F2D3758F501961A
:10154000A11DB11D2093090480933F049093400492
:10155000A0934104B093420480910A0490910B043B
:10156000A0910C04B0910D040196A11DB11D8093B2
:101570000A0490930B04A0930C04B0930D04BF9144
:10158000AF919F918F913F912F910F900FBE0F9030
:101590001F90189526E8230F0296A11DB11DD2CFEA
:1015A0001F920F920FB60F9211240BB60F922F932A
:1015B0003F934F935F936F937F938F939F93AF93DB
:1015C000BF93EF93FF93E0910E02F0910F021995F4
:1015D000FF91EF91BF91AF919F918F917F916F910B
:1015E0005F914F913F912F910F900BBE0F900FBEC7
:1015F0000F901F9018951F920F920FB60F92112403
:101600000BB60F922F933F934F935F936F937F93FC
:101610008F939F93AF93BF93EF93FF93E0910C024F
:10162000F0910D021995FF91EF91BF91AF919F91AC
:101630008F917F916F915F914F913F912F910F907B
:101640000BBE0F900FBE0F901F9018951F920F9218
:101650000FB60F9211240BB60F922F933F934F9317
:101660005F936F937F938F939F93AF93BF93EF930A
:10167000FF93E0910202F09103021995FF91EF911F
:10168000BF91AF919F918F917F916F915F914F919A
:101690003F912F910F900BBE0F900FBE0F901F9098
:1016A00018951F920F920FB60F9211240BB60F923E
:1016B0002F933F934F935F936F937F938F939F935A
:1016C000AF93BF93EF93FF93E0910002F09101027B
:1016D0001995FF91EF91BF91AF919F918F917F915C
:1016E0006F915F914F913F912F910F900BBE0F9093
:1016F0000FBE0F901F9018951F920F920FB60F926A
:1017000011240BB60F922F933F934F935F936F93D8
:101710007F938F939F93AF93BF93EF93FF93E0914A
:101720000A02F0910B021995FF91EF91BF91AF91D1
:101730009F918F917F916F915F914F913F912F91E9
:101740000F900BBE0F900FBE0F901F9018951F9219
:101750000F920FB60F9211240BB60F922F933F9357
:101760004F935F936F937F938F939F93AF93BF93A9
:10177000EF93FF93E0910802F09109021995FF9110
:10178000EF91BF91AF919F918F917F916F915F91F9
:101790004F913F912F910F900BBE0F900FBE0F9066
:1017A0001F9018951F920F920FB60F9211240BB62F
:1017B0000F922F933F934F935F936F937F938F93EA
:1017C0009F93AF93BF93EF93FF93E0910602F09145
:1017D00007021995FF91EF91BF91AF919F918F9162
:1017E0007F916F915F914F913F912F910F900BBE21
:1017F0000F900FBE0F901F9018951F920F920FB66B
:101800000F9211240BB60F922F933F934F935F9338
:101810006F937F938F939F93AF93BF93EF93FF93B8
:10182000E0910402F09105021995FF91EF91BF91AB
:10183000AF919F918F917F916F915F914F913F9168
:101840002F910F900BBE0F900FBE0F901F90189509
:101850001F920F920FB60F9211240BB60F922F9377
:101860003F934F935F936F937F938F939F93AF9328
:10187000BF93EF93FF938091B900887F803609F47E
:101880004DC008F040C0883209F4A9C028F5803165
:1018900009F49DC0C8F4882309F4FBC0883009F41A
:1018A00096C0FF91EF91BF91AF919F918F917F91E2
:1018B0006F915F914F913F912F910F900BBE0F90C1
:1018C0000FBE0F901F901895883109F488C08032A0
:1018D00041F78093E60314C0803409F49DC040F4BE
:1018E0008033B9F38833E9F68093E60385ECB0C022
:1018F000803509F485C0883509F496C0883489F6A6
:101900000E946B04CECF883909F48CC038F5883733
:1019100029F050F4883611F0803719F683E080936F
:1019200014041092C20357C0883809F47BC0803970
:1019300019F0803809F0B5CF8091C203803208F0E9
:1019400071C0E091C20381E08E0F8093C203809149
:10195000BB00F0E0EE55FC4F80833DC0803B39F08A
:10196000E0F4803A09F479C0883A09F09ACF84E02B
:10197000809314041092A1031092A003E09110042C
:10198000F091110419958091A00381110FC081E09D
:101990008093A0031092800309C0803C09F4A6CF75
:1019A000883C09F4A3CF883B09F07BCFE091A103E9
:1019B00081E08E0F8093A103F0E0E058FC4F80811E
:1019C0008093BB009091A1038091A00329C08091D6
:1019D000C3038093BB0085EC8093BC0062CF9091E1
:1019E000E5038091E403981758F5E091E50381E061
:1019F0008E0F8093E503F0E0EC53FC4F8081E9CF3C
:101A0000E091E50381E08E0F8093E5038091BB00B8
:101A1000F0E0EC53FC4F80839091E5038091E40368
:101A20009817C8F285E8D8CFE091E50381E08E0FE2
:101A30008093E5038091BB00F0E0EC53FC4F808382
:101A40008091130481115CCF81E08093120484EAB9
:101A50008093BC001092140424CF85EC8093BC00CA
:101A6000109214048091C203803230F4E091C203DA
:101A7000F0E0EE55FC4F10826091C20370E0E091FF
:101A80000E04F0910F0482EA93E019951092C203BC
:101A900008CF1092E60334CF1F920F920FB60F9229
:101AA00011242F933F938F939F9380911F049091C4
:101AB00020042091270430912804820F931F9093D3
:101AC00028048093270420915F03211107C02091EF
:101AD0002F04309130048217930739F488E1809302
:101AE00021011092730010925B039F918F913F919F
:101AF0002F910F900FBE0F901F9018951F920F926D
:101B00000FB60F9211242F933F938F939F93809141
:101B10001D0490911E042091250430912604820F0B
:101B2000931F909326048093250420915E03211136
:101B300007C020912D0430912E048217930739F4A9
:101B400088E18093A1001092720010925A039F9135
:101B50008F913F912F910F900FBE0F901F9018956E
:101B60001F920F920FB60F9211242F933F938F93D2
:101B70009F9380911B0490911C0420912304309129
:101B80002404820F931F90932404809323042091B4
:101B90005D03211107C020912B0430912C04821782
:101BA000930739F488E180939100109271001092AC
:101BB00059039F918F913F912F910F900FBE0F90DE
:101BC0001F9018951F920F920FB60F9211242F930A
:101BD0003F938F939F938091190490911A042091C1
:101BE000210430912204820F931F9093220480934A
:101BF000210420915C03211107C020912904309118
:101C00002A048217930739F488E1809381001092A7
:101C10006F00109258039F918F913F912F910F90D9
:101C20000FBE0F901F901895109246041092450415
:101C300088EE93E0A0E0B0E08093470490934804DE
:101C4000A0934904B0934A0422E332E03093440461
:101C50002093430425EC30E03093500420934F044C
:101C600024EC30E0309352042093510420EC30E017
:101C7000309354042093530421EC30E03093560405
:101C80002093550422EC30E03093580420935704FD
:101C900026EC30E030935A042093590410925C04EF
:101CA00010925D0410925E0410925F041092E3049F
:101CB0001092E2048093E4049093E504A093E60478
:101CC000B093E70484E492E09093E1048093E0040D
:101CD00083E090E048DA8093FF041092F6041092BB
:101CE000F50486E592E09093F4048093F30487E290
:101CF0008093F70480E18093FC0482E08093FD04EC
:101D00001092FE0482E090E02EDA8093F2041092AA
:101D1000ED041092EC041092EF041092EE04109275
:101D2000F1041092F00470E060E08CEE94E0BCD915
:101D30002091EC043091ED04811112C02115310580
:101D400011F0C90170D61092ED041092EC041092BB
:101D5000F1041092F0041092EF041092EE04089532
:101D60001092F1041092F00460E972E0C901D2C748
:101D7000CF93DF9300D000D01F921F92CDB7DEB774
:101D8000789484B5826084BD84B5816084BD85B556
:101D9000826085BD85B5816085BD80916E00816062
:101DA00080936E0010928100809181008260809308
:101DB000810080918100816080938100809180000A
:101DC0008160809380008091B10084608093B10035
:101DD0008091B00081608093B0008091910082601A
:101DE0008093910080919100816080939100809117
:101DF00090008160809390008091A1008260809328
:101E0000A1008091A10081608093A1008091A00039
:101E100081608093A00080912101826080932101E4
:101E20008091210181608093210180912001816056
:101E30008093200180917A00846080937A00809161
:101E40007A00826080937A0080917A00816080932A
:101E50007A0080917A00806880937A001092C100A5
:101E600010928500109284001092890010928800D0
:101E700085E090E090938B0080938A001092800020
:101E800010928100109287001092860010926F00CD
:101E900016BA109295001092940010929900109228
:101EA000980090939B0080939A001092900010925B
:101EB000910010929700109296001092710018BA3B
:101EC0001092A5001092A4001092A9001092A800F0
:101ED0009093AB008093AA001092A0001092A100F2
:101EE0001092A7001092A6001092720019BA1092D8
:101EF000250110922401109229011092280190933B
:101F00002B0180932A01109220011092210110923E
:101F1000270110922601109273001ABA1092180429
:101F200010921704109216041092150410921404C3
:101F300081E0809313041092120461E084E10E9416
:101F4000B70361E085E10E94B7038091B9008E7FFD
:101F50008093B9008091B9008D7F8093B90088E4A7
:101F60008093B80085E48093BC008EE591E0909367
:101F70001104809310048FE591E090930F048093F7
:101F80000E041092F8048091FD04823018F098E05D
:101F90009093F8048093FB0462E370E080E090E0AB
:101FA0000E943A046091FE0483EF94E00E942005B1
:101FB00068EE73E080E090E00E943A0460E383EF13
:101FC00094E00E9437070BE416E4C8010197F1F78B
:101FD00060E383EF94E00E943707C8010197F1F7AF
:101FE00060E383EF94E00E94370783E592E0019776
:101FF000F1F760E283EF94E00E9437076091F80404
:10200000606240E083EF94E00E944D0784E080939B
:10201000F90440E06CE083EF94E00E944D070E94D9
:10202000970782E08093FA0440E066E083EF94E053
:102030000E944D0740E062E083EF94E00E944D076C
:102040008BE39FE10197F1F788E08093FE0460E065
:1020500083EF94E00E94200562E081E30E94E403A4
:1020600062E082E20E94E40362E083E20E94E40311
:1020700062E084E20E94E40362E085E20E94E403FD
:1020800062E083E00E94E40362E080E30E94E403F4
:1020900061E08EE00E94E40361E089E00E94E403D5
:1020A00061E084E00E94E40361E08AE00E94E403CE
:1020B00031E2832E34E0932E4AE2A42E42E0B42E85
:1020C00056E2C52E52E0D52E62E2E62E62E0F62EF2
:1020D00010E000E0C801880F991FFC01E75DFB4F8D
:1020E00011821082F401119211924F01875E9B4F71
:1020F000FC0111821082F50131905F0161E0832DB6
:102100000E94E403F60151906F0161E0852D0E9469
:10211000E403F70141907F0161E0842D0E94E40314
:1021200060E0832D0E94B70360E0842D0E94B70316
:1021300060E0852D0E94B70361E08EE30E94B70343
:102140000F5F1F4F0430110529F60E94360183E00E
:102150000E948F038C0181E30E948F032091FF0472
:1021600030E00217130709F436C18217930709F408
:1021700032C10E9436010E94970760E080E00E9411
:10218000620768E972E083EF94E00E941B0861E057
:1021900080E00E94620763EA72E083EF94E00E94AD
:1021A0001B0805E080913104853009F414C183E4F3
:1021B00094E00E94560218161906A4F783E494E0EE
:1021C0000E949D011A8219821C821B821E821D821E
:1021D0008F831886BE01695F7F4FCE0101960E94F2
:1021E0007C088091EC049091ED04009709F45EC0A6
:1021F00069817A816115710509F457C04091EE0437
:102200005091EF042D813E814217530708F44DC0D1
:1022100081D58D819E819093F1048093F0041E827C
:102220001D8289819A81009709F0FDD362E070E0F8
:1022300080E090E00E943A0482EB92E00E943B082A
:10224000882309F44AC060E972E08CEE94E00E94B1
:102250007C0885EF92E00E943B08882309F4A7CF11
:102260000E94970760E080E00E94620767EF72E0DB
:1022700083EF94E00E941B0861E080E00E94620707
:1022800066E073E083EF94E00E941B0860E972E06F
:102290008CEE94E00E947C0860ED77E080E090E0B6
:1022A0000E943A040093310482CFBDD389819A8180
:1022B0009093ED048093EC048B819C819093EF04C8
:1022C0008093EE048D819E819093F1048093F004BD
:1022D0001A8219821C821B82A2CF8EEB92E00E948E
:1022E0003B08882399F00E94970760E080E00E94F5
:1022F000620764EB72E083E494E00E941B0860ECE8
:1023000072E083EF94E00E941B089DCF8AEC92E07C
:102310000E943B088823E9F00E94FE01162FF72E49
:1023200090E080E00E94B1080E94970760E080E0A2
:102330000E9462076CEC72E083EF94E00E941B083D
:1023400060E08AE00E946207812F9F2D0E94F507BE
:102350007ACF87ED92E00E943B088823F1F060E09D
:1023600081E090E00E94B1080E94970760E080E061
:102370000E94620769ED72E083EF94E00E941B08FF
:1023800060E08EE00E9462076091320470E090E0AD
:1023900080E04AE00E94B00756CF87EE92E00E94AC
:1023A0003B08882309F455CF0E94FE01162FF72E13
:1023B00082E090E00E94B1080E94970760E080E010
:1023C0000E94620769EE72E083EF94E00E941B08AE
:1023D00060E08CE0B7CF81E090E00E94B30880938A
:1023E00032042091F2042150330B82171306BCF003
:1023F0000E94970760E080E00E94620765E173E059
:1024000083EF94E00E941B0888EE93E00E942A0765
:102410000E941C0888EE93E00E942A07E9CF61E041
:10242000680F6093320481E090E00E94B1080E943E
:10243000970760E081E00E94620769E273E083EF42
:1024400094E00E941B0861E081E00E94620768E35B
:1024500073E083EF94E00E941B0880E30E948F03E7
:102460008C01909334048093330483E290E00E94C3
:102470002A0760E088E00E946207C8010E94F50711
:102480008091330490913404019709F0EEC080915B
:102490007B00877F80937B0080E480937C00809129
:1024A0007A00806480937A0080917A0086FDFCCF68
:1024B0008091780060917900762F682F072E000CAC
:1024C000880B990B611571058105910509F077D18C
:1024D0002AD123E630E040E050E090D16C597F4FA4
:1024E0008F4F9F4F90E080E00E94B10890E080E025
:1024F0000E94B30890E090933E0480933D0485E0F1
:1025000090E00E94860583E090E00E94860583E0CB
:102510000E948F038C0184E690E00E942A0780913C
:10252000FF048017110609F0AAC00E94B50861E0F7
:1025300089E00E94B70368EC70E080E090E00E94C0
:102540003A0460E089E00E94B70366E970E080E049
:1025500090E00E943A0461E089E00E94B70368ECD1
:1025600070E080E090E00E943A0460E089E00E9420
:10257000B70366E970E080E090E00E943A0464EFFF
:1025800071E080E090E00E943A0461E089E00E94FE
:10259000B703789488EE98E0909303028093020248
:1025A00080916A00837F846080936A00ED9A83E063
:1025B000E82EF12C83E494E00E94560218161906C6
:1025C000CCF783E494E00E949D018C0180913D044E
:1025D00090913E040817190709F044C083E494E081
:1025E0000E94560218161906CCF783E494E00E9464
:1025F0009D0108171907B1F583E494E00E94560283
:102600000897D4F305E314E083E494E00E949D016D
:10261000D82E83E494E00E949D01612C86299D2997
:10262000B70149D1F801619371938F01F4E00D3343
:102630001F0751F780913504909136040E94E206FD
:1026400080913704909138040E949A068091390451
:1026500090913A040E94520680913B0490913C0470
:102660000E940A060E94F802A5CF90E080E00E9436
:10267000B30890E090933E0480933D0444CF0E94C1
:102680001C0855CF8091EC049091ED04009709F05F
:10269000CAC108958F929F92AF92BF92CF92DF925C
:1026A000EF92FF92CF93DF93EC01688179818A8169
:1026B0009B81611571058105910521F464E279ED35
:1026C0008BE597E02DE133EF41E050E097D04901F1
:1026D0005A019B01AC01A7EAB1E4ACD06B017C01CB
:1026E000ACEEB4EFA5019401B1D0C60ED71EE81E22
:1026F000F91EF7FE06C081E0C81AD108E10880E89B
:10270000F80AC882D982EA82FB82C701B6019F77A4
:10271000DF91CF91FF90EF90DF90CF90BF90AF907F
:102720009F908F9008958F929F92AF92BF92CF9279
:10273000DF92EF92FF9260911002709111028091EE
:10274000120290911302611571058105910521F422
:1027500064E279ED8BE597E02DE133EF41E050E065
:102760004DD049015A019B01AC01A7EAB1E462D006
:102770006B017C01ACEEB4EFA501940167D0C60EED
:10278000D71EE81EF91EF7FE06C081E0C81AD10860
:10279000E10880E8F80AC0921002D0921102E0929B
:1027A0001202F0921302C701B6019F77FF90EF90DB
:1027B000DF90CF90BF90AF909F908F9008956093DF
:1027C00010027093110280931202909313020895E5
:1027D000F999FECF92BD81BDF89A992780B50895E9
:1027E000262FF999FECF1FBA92BD81BD20BD0FB62D
:1027F000F894FA9AF99A0FBE01960895052E97FB60
:1028000016F400940FD057FD05D024D007FC02D059
:1028100046F408C050954095309521953F4F4F4F55
:102820005F4F089590958095709561957F4F8F4F7C
:102830009F4F089531D0A59F900DB49F900DA49FF8
:10284000800D911D11240895B7FFF4CFF3DF821B93
:10285000930B0895A1E21A2EAA1BBB1BFD010DC00C
:10286000AA1FBB1FEE1FFF1FA217B307E407F50740
:1028700020F0A21BB30BE40BF50B661F771F881F1C
:10288000991F1A9469F760957095809590959B01B2
:10289000AC01BD01CF010895A29FB001B39FC0015B
:1028A000A39F700D811D1124911DB29F700D811D7C
:1028B0001124911D0895AA1BBB1B51E107C0AA1F3B
:1028C000BB1FA617B70710F0A61BB70B881F991FD1
:1028D0005A95A9F780959095BC01CD010895EE0F0A
:1028E000FF1F881F8BBF0790F691E02D19940F935F
:1028F0001F93CF93DF938230910510F482E090E034
:10290000E0910205F091030530E020E0B0E0A0E0A6
:10291000309799F42115310509F44AC0281B390B69
:1029200024303105D8F58A819B816115710589F1C3
:10293000FB0193838283FE0111C04081518102819A
:10294000138148175907E0F04817590799F4109771
:1029500061F012960C93129713961C933296CF0146
:10296000DF91CF911F910F9108950093020510936D
:102970000305F4CF2115310551F04217530738F004
:10298000A901DB019A01BD01DF01F801C1CFEF010F
:10299000F9CF9093030580930205CDCFFE01E20F9E
:1029A000F31F819391932250310939832883D7CF24
:1029B0002091000530910105232B41F4209116024E
:1029C00030911702309301052093000520911402E5
:1029D000309115022115310541F42DB73EB74091D4
:1029E000180250911902241B350BE0910005F0915B
:1029F0000105E217F307A0F42E1B3F0B2817390738
:102A000078F0AC014E5F5F4F2417350748F04E0F4A
:102A10005F1F5093010540930005819391939FCFD1
:102A2000F0E0E0E09CCFCF93DF930097E9F0FC016A
:102A3000329713821282A0910205B0910305ED0135
:102A400030E020E01097A1F420813181820F931FA4
:102A500020910005309101052817390709F061C060
:102A6000F0930105E0930005DF91CF910895EA010D
:102A7000CE17DF07E8F54A815B819E0141155105BC
:102A8000B1F7E901FB83EA8349915991C40FD51F3E
:102A9000EC17FD0761F4808191810296840F951FE8
:102AA000E90199838883828193819B838A83F0E003
:102AB000E0E012968D919C9113970097B9F52D91B6
:102AC0003C911197CD010296820F931F2091000532
:102AD000309101052817390739F6309751F51092D2
:102AE000030510920205B0930105A0930005BCCF29
:102AF000D383C28340815181840F951FC817D907A2
:102B000061F44E5F5F4F88819981480F591F51834F
:102B100040838A819B81938382832115310509F04B
:102B2000B0CFF0930305E09302059ECFFD01DC01D9
:102B3000C0CF13821282D7CF4F925F926F927F9253
:102B40008F929F92AF92BF92CF92DF92EF92FF92BD
:102B50000F931F93CF93DF938C01009791F4CB01D8
:102B6000DF91CF911F910F91FF90EF90DF90CF9069
:102B7000BF90AF909F908F907F906F905F904F909D
:102B8000B6CEFC01E60FF71F9C0122503109E21777
:102B9000F30708F4AAC0D901CD91DC911197C617AB
:102BA000D70718F1C530D10570F0CE01049786170C
:102BB000970748F0C61BD70B2297C193D1936D930B
:102BC0007C93CF0130DFC801DF91CF911F910F912E
:102BD000FF90EF90DF90CF90BF90AF909F908F903D
:102BE0007F906F905F904F9008955B01AC1ABD0A83
:102BF0004C018C0E9D1EA0910205B0910305512C35
:102C0000412CF12CE12C109731F580910005909129
:102C100001058815990509F05CC04616570608F0AD
:102C200058C08091140290911502009741F48DB71D
:102C30009EB74091180250911902841B950BE8171A
:102C4000F90708F052C0F0930105E0930005F9017F
:102C500071836083B8CF8D919C91119712966C907F
:102C6000129713967C901397A815B90559F56C0126
:102C700042E0C40ED11CCA14DB0420F1AC014A1995
:102C80005B09DA011296159780F062827382518394
:102C90004083D9016D937C93E114F10471F0D70165
:102CA0001396FC93EE9312978ECF22968C0F9D1F56
:102CB000F90191838083F301EFCFF0930305E09353
:102CC000020581CF4816590608F42C017D01D30175
:102CD0009ACFCB010CDE7C01009739F0AE01B80130
:102CE00007D0C801A0DE87016ECF10E000E06BCFF7
:102CF000FB01DC0102C001900D9241505040D8F719
:102D00000895FB01DC018D91019080190110D9F328
:102D1000990B0895FB01DC0101900D920020E1F771
:102D2000089511E0C3E0D1E000E005C0802FFE016E
:102D3000D6DD2196011DC430D10780E00807B1F728
:042D4000F894FFCF35
:102D44006A046A046A046A046A046A046A046A040F
:102D54000100000000000405800000004000140091
:102D640054003E3F40411E1F20210C02072D00004D
:102D740000008D0261018E01D90256029D01B1014C
:102D840000000000F204C60483059C04BF04AC04E4
:102D94009D04000000009207610183056001454E17
:102DA4003A4F6666005374617465203A2053746F19
:102DB4007000456E3A4F70656E0053746174653AE5
:102DC40052756E6E696E6700310052554E000D0AE1
:102DD40000300053544F5000436F6E6E6563746946
:102DE4006F6E007375636365737366756C2E2E2E38
:102DF4002E006100636F6D64617461203D20620088
:102E0400636F6D646174613D620073007374617219
:102E1400744D61726B3D00520043757272656E743D
:102E240075736167653D005400546F74616C75730C
:102E34006167653D004F00536574757020636F6D65
:102E4400706C65746500506C6561736520726573A0
:102E540074617274004C6963656E73652065787083
:102E6400697265642E2E2E2E00342D6178697320CC
:102E740064796E616D69630053494D20416E616CE4
:082E84006F672043617200003A
:00000001FF
